:10036A000121000122000123000137000840010297
:06037A000304050607085C
:10033300D3EF9400EE94004015E4FDFC0DBD0001E5
:0E0343000CED647C4C70F5EF1F70E51E80E23F
:010351002289
:1002EF007E08C2A3AD061EED60170000D2A3EF2556
:1002FF00E0FF30A10543070180035307FEC2A3802F
:01030F00E30A
:0103100022CA
:100311007E08C2A3AD061EED601700C2A3EF30E751
:1003210004D2A28002C2A200D2A300EF25E0FF8086
:01033100E3E8
:0103320022A8
:10035200AC05AB07C2A07F02120311AF0312031157
:08036200AF04120311D2A02226
:02039600AC07B2
:10039800C2A07F03120311AF041203111202EFD29D
:0103A800A0B4
:0103A9002231
:0A001600C2A07FC0120311D2A02285
:100026001200167F017E00120333E4FD7F201203C7
:1000360052E4FD7F21120352E4FDFF120352E4FD58
:100046007F011203527D037F2A1203527D907F297E
:100056001203527D027F281203527DFF7F31120365
:10006600527DE07F32120352E4FD7F611203527D1E
:10007600607F621203527D607F601203527D087FAB
:10008600651203527DFFE4FF1203527DE07F0112E9
:1000960003527DFF7F201203527DE07F211203521F
:1000A600E4FD7F2C1203527D017F2B1203527D0447
:1000B6007F0F1203527F0E1203968F2CE52C7E00C3
:1000C60060047F0180027F00EF4E60077D047F0F92
:0400D600120352229D
:080166008B108A1189128D1320
:10016E007FA01203968F14AD137F35120352E4F560
:10017E0015E515C39513501CE5152436FFAB10AAD3
:10018E0011A9128515827583001201C8FD12035242
:10019E00051580DDE51430E2177F017E0012033372
:1001AE00E4FD7F301203527FA0120396EF20E2F798
:0901BE00C2A07F81120311D2A03E
:0101C7002215
:060256008B108A118912D1
:10025C007F651203968F35E4F513E513C39535507E
:10026C001CE5132466FF120396AB10AA11A9128584
:10027C001382758300EF1201F5051380DDE4FD7F19
:04028C002C020352EB
:10038100759850438920438780758DF4758BF443AC
:05039100A890D28E22AD
:1003AA00438901758CB8E4F58A43A890C2A9C28C26
:0103BA002220
:080003008F993099FDC299228A
:0A02C2008B108A1189128C138D1421
:1002CC00E4FDFCAB10AA11A9128D828C831201C81B
:1002DC00FF1200030DBD00010CC3ED9514EC95133A
:0202EC0040E1EF
:0102EE0022ED
:03000B000203BB32
:0E03BB00C2A9C28C758CB8758A0075220132F9
:0300230002029046
:07029000C0E0C0D075D008EA
:10029700309823C298D2A9D28CAF99742D2537F8FC
:1002A700A60F0537E537B4080DC2A9C28C758CB8FF
:0602B700758A00752201AA
:0502BD00D0D0D0E032BA
:0300130002000EDA
:04000E007521013225
:0903C900D2BAD2AAC28AD2AF2234
:100217001200261203811203AA1203C9E5226010F5
:10022700E4F522FB7A00792DAD37120166E4F53744
:10023700E52160E87B007A007938120256E4F5215F
:0F024700FB7A007938E535FD7C001202C280CDCC
:030000000200DA21
:0C00DA00787FE4F6D8FD75814702012113
:1001C800BB010CE58229F582E5833AF583E02250EC
:1001D80006E92582F8E622BBFE06E92582F8E22236
:0D01E800E58229F582E5833AF583E4932250
:1001F500F8BB010DE58229F582E5833AF583E8F040
:10020500225006E92582C8F622BBFE05E92582C8EB
:02021500F222D3
:1000E600020217E493A3F8E493A34003F68001F217
:1000F60008DFF48029E493A3F85407240CC8C3331B
:10010600C4540F4420C8834004F456800146F6DFE9
:10011600E4800B010204081020408090036AE47E0C
:10012600019360BCA3FF543F30E509541FFEE493DE
:10013600A360010ECF54C025E060A840B8E493A3A5
:10014600FAE493A3F8E493A3C8C582C8CAC583CAD0
:10015600F0A3C8C582C8CAC583CADFE9DEE780BE88
:01038000007C
:00000001FF
